{
  "_format": "hh3-artifact-1",
  "contractName": "CookNFT",
  "sourceName": "contracts/ntf/CookNFT.sol",
  "abi": [
    {
      "inputs": [],
      "stateMutability": "nonpayable",
      "type": "constructor"
    },
    {
      "inputs": [
        {
          "internalType": "address",
          "name": "sender",
          "type": "address"
        },
        {
          "internalType": "uint256",
          "name": "tokenId",
          "type": "uint256"
        },
        {
          "internalType": "address",
          "name": "owner",
          "type": "address"
        }
      ],
      "name": "ERC721IncorrectOwner",
      "type": "error"
    },
    {
      "inputs": [
        {
          "internalType": "address",
          "name": "operator",
          "type": "address"
        },
        {
          "internalType": "uint256",
          "name": "tokenId",
          "type": "uint256"
        }
      ],
      "name": "ERC721InsufficientApproval",
      "type": "error"
    },
    {
      "inputs": [
        {
          "internalType": "address",
          "name": "approver",
          "type": "address"
        }
      ],
      "name": "ERC721InvalidApprover",
      "type": "error"
    },
    {
      "inputs": [
        {
          "internalType": "address",
          "name": "operator",
          "type": "address"
        }
      ],
      "name": "ERC721InvalidOperator",
      "type": "error"
    },
    {
      "inputs": [
        {
          "internalType": "address",
          "name": "owner",
          "type": "address"
        }
      ],
      "name": "ERC721InvalidOwner",
      "type": "error"
    },
    {
      "inputs": [
        {
          "internalType": "address",
          "name": "receiver",
          "type": "address"
        }
      ],
      "name": "ERC721InvalidReceiver",
      "type": "error"
    },
    {
      "inputs": [
        {
          "internalType": "address",
          "name": "sender",
          "type": "address"
        }
      ],
      "name": "ERC721InvalidSender",
      "type": "error"
    },
    {
      "inputs": [
        {
          "internalType": "uint256",
          "name": "tokenId",
          "type": "uint256"
        }
      ],
      "name": "ERC721NonexistentToken",
      "type": "error"
    },
    {
      "inputs": [
        {
          "internalType": "address",
          "name": "owner",
          "type": "address"
        }
      ],
      "name": "OwnableInvalidOwner",
      "type": "error"
    },
    {
      "inputs": [
        {
          "internalType": "address",
          "name": "account",
          "type": "address"
        }
      ],
      "name": "OwnableUnauthorizedAccount",
      "type": "error"
    },
    {
      "anonymous": false,
      "inputs": [
        {
          "indexed": true,
          "internalType": "address",
          "name": "owner",
          "type": "address"
        },
        {
          "indexed": true,
          "internalType": "address",
          "name": "approved",
          "type": "address"
        },
        {
          "indexed": true,
          "internalType": "uint256",
          "name": "tokenId",
          "type": "uint256"
        }
      ],
      "name": "Approval",
      "type": "event"
    },
    {
      "anonymous": false,
      "inputs": [
        {
          "indexed": true,
          "internalType": "address",
          "name": "owner",
          "type": "address"
        },
        {
          "indexed": true,
          "internalType": "address",
          "name": "operator",
          "type": "address"
        },
        {
          "indexed": false,
          "internalType": "bool",
          "name": "approved",
          "type": "bool"
        }
      ],
      "name": "ApprovalForAll",
      "type": "event"
    },
    {
      "anonymous": false,
      "inputs": [
        {
          "indexed": false,
          "internalType": "uint256",
          "name": "_fromTokenId",
          "type": "uint256"
        },
        {
          "indexed": false,
          "internalType": "uint256",
          "name": "_toTokenId",
          "type": "uint256"
        }
      ],
      "name": "BatchMetadataUpdate",
      "type": "event"
    },
    {
      "anonymous": false,
      "inputs": [
        {
          "indexed": false,
          "internalType": "uint256",
          "name": "_tokenId",
          "type": "uint256"
        }
      ],
      "name": "MetadataUpdate",
      "type": "event"
    },
    {
      "anonymous": false,
      "inputs": [
        {
          "indexed": true,
          "internalType": "address",
          "name": "minter",
          "type": "address"
        },
        {
          "indexed": true,
          "internalType": "uint256",
          "name": "tokenId",
          "type": "uint256"
        },
        {
          "indexed": false,
          "internalType": "string",
          "name": "uri",
          "type": "string"
        }
      ],
      "name": "NFTMinted",
      "type": "event"
    },
    {
      "anonymous": false,
      "inputs": [
        {
          "indexed": true,
          "internalType": "address",
          "name": "previousOwner",
          "type": "address"
        },
        {
          "indexed": true,
          "internalType": "address",
          "name": "newOwner",
          "type": "address"
        }
      ],
      "name": "OwnershipTransferred",
      "type": "event"
    },
    {
      "anonymous": false,
      "inputs": [
        {
          "indexed": true,
          "internalType": "address",
          "name": "from",
          "type": "address"
        },
        {
          "indexed": true,
          "internalType": "address",
          "name": "to",
          "type": "address"
        },
        {
          "indexed": true,
          "internalType": "uint256",
          "name": "tokenId",
          "type": "uint256"
        }
      ],
      "name": "Transfer",
      "type": "event"
    },
    {
      "inputs": [],
      "name": "MAX_SUPPLY",
      "outputs": [
        {
          "internalType": "uint256",
          "name": "",
          "type": "uint256"
        }
      ],
      "stateMutability": "view",
      "type": "function"
    },
    {
      "inputs": [
        {
          "internalType": "address",
          "name": "to",
          "type": "address"
        },
        {
          "internalType": "uint256",
          "name": "tokenId",
          "type": "uint256"
        }
      ],
      "name": "approve",
      "outputs": [],
      "stateMutability": "nonpayable",
      "type": "function"
    },
    {
      "inputs": [
        {
          "internalType": "address",
          "name": "owner",
          "type": "address"
        }
      ],
      "name": "balanceOf",
      "outputs": [
        {
          "internalType": "uint256",
          "name": "",
          "type": "uint256"
        }
      ],
      "stateMutability": "view",
      "type": "function"
    },
    {
      "inputs": [
        {
          "internalType": "uint256",
          "name": "tokenId",
          "type": "uint256"
        }
      ],
      "name": "getApproved",
      "outputs": [
        {
          "internalType": "address",
          "name": "",
          "type": "address"
        }
      ],
      "stateMutability": "view",
      "type": "function"
    },
    {
      "inputs": [
        {
          "internalType": "address",
          "name": "owner",
          "type": "address"
        },
        {
          "internalType": "address",
          "name": "operator",
          "type": "address"
        }
      ],
      "name": "isApprovedForAll",
      "outputs": [
        {
          "internalType": "bool",
          "name": "",
          "type": "bool"
        }
      ],
      "stateMutability": "view",
      "type": "function"
    },
    {
      "inputs": [
        {
          "internalType": "string",
          "name": "uri",
          "type": "string"
        }
      ],
      "name": "mint",
      "outputs": [
        {
          "internalType": "uint256",
          "name": "",
          "type": "uint256"
        }
      ],
      "stateMutability": "payable",
      "type": "function"
    },
    {
      "inputs": [],
      "name": "mintPrice",
      "outputs": [
        {
          "internalType": "uint256",
          "name": "",
          "type": "uint256"
        }
      ],
      "stateMutability": "view",
      "type": "function"
    },
    {
      "inputs": [],
      "name": "name",
      "outputs": [
        {
          "internalType": "string",
          "name": "",
          "type": "string"
        }
      ],
      "stateMutability": "view",
      "type": "function"
    },
    {
      "inputs": [],
      "name": "owner",
      "outputs": [
        {
          "internalType": "address",
          "name": "",
          "type": "address"
        }
      ],
      "stateMutability": "view",
      "type": "function"
    },
    {
      "inputs": [
        {
          "internalType": "uint256",
          "name": "tokenId",
          "type": "uint256"
        }
      ],
      "name": "ownerOf",
      "outputs": [
        {
          "internalType": "address",
          "name": "",
          "type": "address"
        }
      ],
      "stateMutability": "view",
      "type": "function"
    },
    {
      "inputs": [],
      "name": "renounceOwnership",
      "outputs": [],
      "stateMutability": "nonpayable",
      "type": "function"
    },
    {
      "inputs": [
        {
          "internalType": "address",
          "name": "from",
          "type": "address"
        },
        {
          "internalType": "address",
          "name": "to",
          "type": "address"
        },
        {
          "internalType": "uint256",
          "name": "tokenId",
          "type": "uint256"
        }
      ],
      "name": "safeTransferFrom",
      "outputs": [],
      "stateMutability": "nonpayable",
      "type": "function"
    },
    {
      "inputs": [
        {
          "internalType": "address",
          "name": "from",
          "type": "address"
        },
        {
          "internalType": "address",
          "name": "to",
          "type": "address"
        },
        {
          "internalType": "uint256",
          "name": "tokenId",
          "type": "uint256"
        },
        {
          "internalType": "bytes",
          "name": "data",
          "type": "bytes"
        }
      ],
      "name": "safeTransferFrom",
      "outputs": [],
      "stateMutability": "nonpayable",
      "type": "function"
    },
    {
      "inputs": [
        {
          "internalType": "address",
          "name": "operator",
          "type": "address"
        },
        {
          "internalType": "bool",
          "name": "approved",
          "type": "bool"
        }
      ],
      "name": "setApprovalForAll",
      "outputs": [],
      "stateMutability": "nonpayable",
      "type": "function"
    },
    {
      "inputs": [
        {
          "internalType": "uint256",
          "name": "newPrice",
          "type": "uint256"
        }
      ],
      "name": "setMintPrice",
      "outputs": [],
      "stateMutability": "nonpayable",
      "type": "function"
    },
    {
      "inputs": [
        {
          "internalType": "bytes4",
          "name": "interfaceId",
          "type": "bytes4"
        }
      ],
      "name": "supportsInterface",
      "outputs": [
        {
          "internalType": "bool",
          "name": "",
          "type": "bool"
        }
      ],
      "stateMutability": "view",
      "type": "function"
    },
    {
      "inputs": [],
      "name": "symbol",
      "outputs": [
        {
          "internalType": "string",
          "name": "",
          "type": "string"
        }
      ],
      "stateMutability": "view",
      "type": "function"
    },
    {
      "inputs": [
        {
          "internalType": "uint256",
          "name": "tokenId",
          "type": "uint256"
        }
      ],
      "name": "tokenURI",
      "outputs": [
        {
          "internalType": "string",
          "name": "",
          "type": "string"
        }
      ],
      "stateMutability": "view",
      "type": "function"
    },
    {
      "inputs": [],
      "name": "totalSupply",
      "outputs": [
        {
          "internalType": "uint256",
          "name": "",
          "type": "uint256"
        }
      ],
      "stateMutability": "view",
      "type": "function"
    },
    {
      "inputs": [
        {
          "internalType": "address",
          "name": "from",
          "type": "address"
        },
        {
          "internalType": "address",
          "name": "to",
          "type": "address"
        },
        {
          "internalType": "uint256",
          "name": "tokenId",
          "type": "uint256"
        }
      ],
      "name": "transferFrom",
      "outputs": [],
      "stateMutability": "nonpayable",
      "type": "function"
    },
    {
      "inputs": [
        {
          "internalType": "address",
          "name": "newOwner",
          "type": "address"
        }
      ],
      "name": "transferOwnership",
      "outputs": [],
      "stateMutability": "nonpayable",
      "type": "function"
    },
    {
      "inputs": [],
      "name": "withdraw",
      "outputs": [],
      "stateMutability": "nonpayable",
      "type": "function"
    }
  ],
  "bytecode": "0x6080604052655af3107a4000600955348015610019575f5ffd5b50336040518060400160405280600781526020016610dbdbdad3919560ca1b8152506040518060400160405280600581526020016410d2d3919560da1b815250815f9081610067919061019c565b506001610074828261019c565b5050506001600160a01b0381166100a457604051631e4fbdf760e01b81525f600482015260240160405180910390fd5b6100ad816100b3565b50610256565b600780546001600160a01b038381166001600160a01b0319831681179093556040519116919082907f8be0079c531659141344cd1fd0a4f28419497f9722a3daafe3b4186f6b6457e0905f90a35050565b634e487b7160e01b5f52604160045260245ffd5b600181811c9082168061012c57607f821691505b60208210810361014a57634e487b7160e01b5f52602260045260245ffd5b50919050565b601f82111561019757805f5260205f20601f840160051c810160208510156101755750805b601f840160051c820191505b81811015610194575f8155600101610181565b50505b505050565b81516001600160401b038111156101b5576101b5610104565b6101c9816101c38454610118565b84610150565b6020601f8211600181146101fb575f83156101e45750848201515b5f19600385901b1c1916600184901b178455610194565b5f84815260208120601f198516915b8281101561022a578785015182556020948501946001909201910161020a565b508482101561024757868401515f19600387901b60f8161c191681555b50505050600190811b01905550565b61164a806102635f395ff3fe608060405260043610610131575f3560e01c806370a08231116100a8578063b88d4fde1161006d578063b88d4fde1461031e578063c87b56dd1461033d578063d85d3d271461035c578063e985e9c51461036f578063f2fde38b1461038e578063f4a0a528146103ad575f5ffd5b806370a082311461029b578063715018a6146102ba5780638da5cb5b146102ce57806395d89b41146102eb578063a22cb465146102ff575f5ffd5b806323b872dd116100f957806323b872dd1461020057806332cb6b0c1461021f5780633ccfd60b1461023457806342842e0e146102485780636352211e146102675780636817c76c14610286575f5ffd5b806301ffc9a71461013557806306fdde0314610169578063081812fc1461018a578063095ea7b3146101c157806318160ddd146101e2575b5f5ffd5b348015610140575f5ffd5b5061015461014f36600461117e565b6103cc565b60405190151581526020015b60405180910390f35b348015610174575f5ffd5b5061017d6103dc565b60405161016091906111c7565b348015610195575f5ffd5b506101a96101a43660046111d9565b61046b565b6040516001600160a01b039091168152602001610160565b3480156101cc575f5ffd5b506101e06101db36600461120b565b610492565b005b3480156101ed575f5ffd5b506008545b604051908152602001610160565b34801561020b575f5ffd5b506101e061021a366004611233565b6104a1565b34801561022a575f5ffd5b506101f261271081565b34801561023f575f5ffd5b506101e061052f565b348015610253575f5ffd5b506101e0610262366004611233565b6105b5565b348015610272575f5ffd5b506101a96102813660046111d9565b6105d4565b348015610291575f5ffd5b506101f260095481565b3480156102a6575f5ffd5b506101f26102b536600461126d565b6105de565b3480156102c5575f5ffd5b506101e0610623565b3480156102d9575f5ffd5b506007546001600160a01b03166101a9565b3480156102f6575f5ffd5b5061017d610636565b34801561030a575f5ffd5b506101e0610319366004611286565b610645565b348015610329575f5ffd5b506101e061033836600461134a565b610650565b348015610348575f5ffd5b5061017d6103573660046111d9565b610668565b6101f261036a3660046113c1565b610673565b34801561037a575f5ffd5b50610154610389366004611406565b610778565b348015610399575f5ffd5b506101e06103a836600461126d565b6107a5565b3480156103b8575f5ffd5b506101e06103c73660046111d9565b6107e2565b5f6103d6826107ef565b92915050565b60605f80546103ea90611437565b80601f016020809104026020016040519081016040528092919081815260200182805461041690611437565b80156104615780601f1061043857610100808354040283529160200191610461565b820191905f5260205f20905b81548152906001019060200180831161044457829003601f168201915b5050505050905090565b5f61047582610813565b505f828152600460205260409020546001600160a01b03166103d6565b61049d82823361084b565b5050565b6001600160a01b0382166104cf57604051633250574960e11b81525f60048201526024015b60405180910390fd5b5f6104db838333610858565b9050836001600160a01b0316816001600160a01b031614610529576040516364283d7b60e01b81526001600160a01b03808616600483015260248201849052821660448201526064016104c6565b50505050565b61053761094a565b478061057e5760405162461bcd60e51b81526020600482015260166024820152754e6f2062616c616e636520746f20776974686472617760501b60448201526064016104c6565b6007546040516001600160a01b039091169082156108fc029083905f818181858888f1935050505015801561049d573d5f5f3e3d5ffd5b6105cf83838360405180602001604052805f815250610650565b505050565b5f6103d682610813565b5f6001600160a01b038216610608576040516322718ad960e21b81525f60048201526024016104c6565b506001600160a01b03165f9081526003602052604090205490565b61062b61094a565b6106345f610977565b565b6060600180546103ea90611437565b61049d3383836109c8565b61065b8484846104a1565b6105293385858585610a66565b60606103d682610b8e565b5f612710600854106106bc5760405162461bcd60e51b815260206004820152601260248201527113585e081cdd5c1c1b1e481c995858da195960721b60448201526064016104c6565b6009543410156107055760405162461bcd60e51b8152602060048201526014602482015273125b9cdd59999a58da595b9d081c185e5b595b9d60621b60448201526064016104c6565b60088054905f6107148361146f565b90915550506008546107263382610c99565b6107308184610cb2565b80336001600160a01b03167fd35bb95e09c04b219e35047ce7b7b300e3384264ef84a40456943dbc0fc17c148560405161076a91906111c7565b60405180910390a392915050565b6001600160a01b039182165f90815260056020908152604080832093909416825291909152205460ff1690565b6107ad61094a565b6001600160a01b0381166107d657604051631e4fbdf760e01b81525f60048201526024016104c6565b6107df81610977565b50565b6107ea61094a565b600955565b5f6001600160e01b03198216632483248360e11b14806103d657506103d682610d01565b5f818152600260205260408120546001600160a01b0316806103d657604051637e27328960e01b8152600481018490526024016104c6565b6105cf8383836001610d50565b5f828152600260205260408120546001600160a01b039081169083161561088457610884818486610e54565b6001600160a01b038116156108be5761089f5f855f5f610d50565b6001600160a01b0381165f90815260036020526040902080545f190190555b6001600160a01b038516156108ec576001600160a01b0385165f908152600360205260409020805460010190555b5f8481526002602052604080822080546001600160a01b0319166001600160a01b0389811691821790925591518793918516917fddf252ad1be2c89b69c2b068fc378daa952ba7f163c4a11628f55a4df523b3ef91a4949350505050565b6007546001600160a01b031633146106345760405163118cdaa760e01b81523360048201526024016104c6565b600780546001600160a01b038381166001600160a01b0319831681179093556040519116919082907f8be0079c531659141344cd1fd0a4f28419497f9722a3daafe3b4186f6b6457e0905f90a35050565b6001600160a01b0382166109fa57604051630b61174360e31b81526001600160a01b03831660048201526024016104c6565b6001600160a01b038381165f81815260056020908152604080832094871680845294825291829020805460ff191686151590811790915591519182527f17307eab39ab6107e8899845ad3d59bd9653f200f220920489ca2b5937696c31910160405180910390a3505050565b6001600160a01b0383163b15610b8757604051630a85bd0160e11b81526001600160a01b0384169063150b7a0290610aa8908890889087908790600401611493565b6020604051808303815f875af1925050508015610ae2575060408051601f3d908101601f19168201909252610adf918101906114cf565b60015b610b49573d808015610b0f576040519150601f19603f3d011682016040523d82523d5f602084013e610b14565b606091505b5080515f03610b4157604051633250574960e11b81526001600160a01b03851660048201526024016104c6565b805160208201fd5b6001600160e01b03198116630a85bd0160e11b14610b8557604051633250574960e11b81526001600160a01b03851660048201526024016104c6565b505b5050505050565b6060610b9982610813565b505f8281526006602052604081208054610bb290611437565b80601f0160208091040260200160405190810160405280929190818152602001828054610bde90611437565b8015610c295780601f10610c0057610100808354040283529160200191610c29565b820191905f5260205f20905b815481529060010190602001808311610c0c57829003601f168201915b505050505090505f610c4560408051602081019091525f815290565b905080515f03610c56575092915050565b815115610c88578082604051602001610c70929190611501565b60405160208183030381529060405292505050919050565b610c9184610eb8565b949350505050565b61049d828260405180602001604052805f815250610f29565b5f828152600660205260409020610cc98282611559565b506040518281527ff8e1a15aba9398e019f0b49df1a4fde98ee17ae345cb5f6b5e2c27f5033e8ce79060200160405180910390a15050565b5f6001600160e01b031982166380ac58cd60e01b1480610d3157506001600160e01b03198216635b5e139f60e01b145b806103d657506301ffc9a760e01b6001600160e01b03198316146103d6565b8080610d6457506001600160a01b03821615155b15610e25575f610d7384610813565b90506001600160a01b03831615801590610d9f5750826001600160a01b0316816001600160a01b031614155b8015610db25750610db08184610778565b155b15610ddb5760405163a9fbf51f60e01b81526001600160a01b03841660048201526024016104c6565b8115610e235783856001600160a01b0316826001600160a01b03167f8c5be1e5ebec7d5bd14f71427d1e84f3dd0314c0f7b2291e5b200ac8c7c3b92560405160405180910390a45b505b50505f90815260046020526040902080546001600160a01b0319166001600160a01b0392909216919091179055565b610e5f838383610f40565b6105cf576001600160a01b038316610e8d57604051637e27328960e01b8152600481018290526024016104c6565b60405163177e802f60e01b81526001600160a01b0383166004820152602481018290526044016104c6565b6060610ec382610813565b505f610ed960408051602081019091525f815290565b90505f815111610ef75760405180602001604052805f815250610f22565b80610f0184610fa1565b604051602001610f12929190611501565b6040516020818303038152906040525b9392505050565b610f338383611031565b6105cf335f858585610a66565b5f6001600160a01b03831615801590610c915750826001600160a01b0316846001600160a01b03161480610f795750610f798484610778565b80610c915750505f908152600460205260409020546001600160a01b03908116911614919050565b60605f610fad83611092565b60010190505f8167ffffffffffffffff811115610fcc57610fcc6112bf565b6040519080825280601f01601f191660200182016040528015610ff6576020820181803683370190505b5090508181016020015b5f19016f181899199a1a9b1b9c1cb0b131b232b360811b600a86061a8153600a850494508461100057509392505050565b6001600160a01b03821661105a57604051633250574960e11b81525f60048201526024016104c6565b5f61106683835f610858565b90506001600160a01b038116156105cf576040516339e3563760e11b81525f60048201526024016104c6565b5f8072184f03e93ff9f4daa797ed6e38ed64bf6a1f0160401b83106110d05772184f03e93ff9f4daa797ed6e38ed64bf6a1f0160401b830492506040015b6d04ee2d6d415b85acef810000000083106110fc576d04ee2d6d415b85acef8100000000830492506020015b662386f26fc10000831061111a57662386f26fc10000830492506010015b6305f5e1008310611132576305f5e100830492506008015b612710831061114657612710830492506004015b60648310611158576064830492506002015b600a83106103d65760010192915050565b6001600160e01b0319811681146107df575f5ffd5b5f6020828403121561118e575f5ffd5b8135610f2281611169565b5f81518084528060208401602086015e5f602082860101526020601f19601f83011685010191505092915050565b602081525f610f226020830184611199565b5f602082840312156111e9575f5ffd5b5035919050565b80356001600160a01b0381168114611206575f5ffd5b919050565b5f5f6040838503121561121c575f5ffd5b611225836111f0565b946020939093013593505050565b5f5f5f60608486031215611245575f5ffd5b61124e846111f0565b925061125c602085016111f0565b929592945050506040919091013590565b5f6020828403121561127d575f5ffd5b610f22826111f0565b5f5f60408385031215611297575f5ffd5b6112a0836111f0565b9150602083013580151581146112b4575f5ffd5b809150509250929050565b634e487b7160e01b5f52604160045260245ffd5b5f5f67ffffffffffffffff8411156112ed576112ed6112bf565b50604051601f19601f85018116603f0116810181811067ffffffffffffffff8211171561131c5761131c6112bf565b604052838152905080828401851015611333575f5ffd5b838360208301375f60208583010152509392505050565b5f5f5f5f6080858703121561135d575f5ffd5b611366856111f0565b9350611374602086016111f0565b925060408501359150606085013567ffffffffffffffff811115611396575f5ffd5b8501601f810187136113a6575f5ffd5b6113b5878235602084016112d3565b91505092959194509250565b5f602082840312156113d1575f5ffd5b813567ffffffffffffffff8111156113e7575f5ffd5b8201601f810184136113f7575f5ffd5b610c91848235602084016112d3565b5f5f60408385031215611417575f5ffd5b611420836111f0565b915061142e602084016111f0565b90509250929050565b600181811c9082168061144b57607f821691505b60208210810361146957634e487b7160e01b5f52602260045260245ffd5b50919050565b5f6001820161148c57634e487b7160e01b5f52601160045260245ffd5b5060010190565b6001600160a01b03858116825284166020820152604081018390526080606082018190525f906114c590830184611199565b9695505050505050565b5f602082840312156114df575f5ffd5b8151610f2281611169565b5f81518060208401855e5f93019283525090919050565b5f610c9161150f83866114ea565b846114ea565b601f8211156105cf57805f5260205f20601f840160051c8101602085101561153a5750805b601f840160051c820191505b81811015610b87575f8155600101611546565b815167ffffffffffffffff811115611573576115736112bf565b611587816115818454611437565b84611515565b6020601f8211600181146115b9575f83156115a25750848201515b5f19600385901b1c1916600184901b178455610b87565b5f84815260208120601f198516915b828110156115e857878501518255602094850194600190920191016115c8565b508482101561160557868401515f19600387901b60f8161c191681555b50505050600190811b0190555056fea2646970667358221220542e5b398ff4888da2888f604c73a1c583fe71e0955af9bb8e31e207d424475d64736f6c634300081c0033",
  "linkReferences": {},
  "deployedLinkReferences": {},
  "immutableReferences": {},
  "inputSourceName": "project/contracts/ntf/CookNFT.sol",
  "buildInfoId": "solc-0_8_28-ef9305426829d32f92a72d6d50b97bf877b825ca"
}