{
  "_format": "hh3-artifact-1",
  "contractName": "MockCookTokenV3Aggregator",
  "sourceName": "contracts/pricefeed/MockCookTokenV3Aggregator.sol",
  "abi": [
    {
      "inputs": [
        {
          "internalType": "uint8",
          "name": "_decimals",
          "type": "uint8"
        },
        {
          "internalType": "string",
          "name": "_description",
          "type": "string"
        },
        {
          "internalType": "int256",
          "name": "_initialAnswer",
          "type": "int256"
        }
      ],
      "stateMutability": "nonpayable",
      "type": "constructor"
    },
    {
      "inputs": [],
      "name": "decimals",
      "outputs": [
        {
          "internalType": "uint8",
          "name": "",
          "type": "uint8"
        }
      ],
      "stateMutability": "view",
      "type": "function"
    },
    {
      "inputs": [],
      "name": "decimalsVar",
      "outputs": [
        {
          "internalType": "uint8",
          "name": "",
          "type": "uint8"
        }
      ],
      "stateMutability": "view",
      "type": "function"
    },
    {
      "inputs": [],
      "name": "description",
      "outputs": [
        {
          "internalType": "string",
          "name": "",
          "type": "string"
        }
      ],
      "stateMutability": "view",
      "type": "function"
    },
    {
      "inputs": [
        {
          "internalType": "uint256",
          "name": "",
          "type": "uint256"
        }
      ],
      "name": "getAnswer",
      "outputs": [
        {
          "internalType": "int256",
          "name": "",
          "type": "int256"
        }
      ],
      "stateMutability": "view",
      "type": "function"
    },
    {
      "inputs": [
        {
          "internalType": "uint80",
          "name": "_roundId",
          "type": "uint80"
        }
      ],
      "name": "getRoundData",
      "outputs": [
        {
          "internalType": "uint80",
          "name": "roundId",
          "type": "uint80"
        },
        {
          "internalType": "int256",
          "name": "answer",
          "type": "int256"
        },
        {
          "internalType": "uint256",
          "name": "startedAt",
          "type": "uint256"
        },
        {
          "internalType": "uint256",
          "name": "updatedAt",
          "type": "uint256"
        },
        {
          "internalType": "uint80",
          "name": "answeredInRound",
          "type": "uint80"
        }
      ],
      "stateMutability": "view",
      "type": "function"
    },
    {
      "inputs": [
        {
          "internalType": "uint256",
          "name": "",
          "type": "uint256"
        }
      ],
      "name": "getTimestamp",
      "outputs": [
        {
          "internalType": "uint256",
          "name": "",
          "type": "uint256"
        }
      ],
      "stateMutability": "view",
      "type": "function"
    },
    {
      "inputs": [],
      "name": "latestAnswer",
      "outputs": [
        {
          "internalType": "int256",
          "name": "",
          "type": "int256"
        }
      ],
      "stateMutability": "view",
      "type": "function"
    },
    {
      "inputs": [],
      "name": "latestRound",
      "outputs": [
        {
          "internalType": "uint256",
          "name": "",
          "type": "uint256"
        }
      ],
      "stateMutability": "view",
      "type": "function"
    },
    {
      "inputs": [],
      "name": "latestRoundData",
      "outputs": [
        {
          "internalType": "uint80",
          "name": "roundId",
          "type": "uint80"
        },
        {
          "internalType": "int256",
          "name": "answer",
          "type": "int256"
        },
        {
          "internalType": "uint256",
          "name": "startedAt",
          "type": "uint256"
        },
        {
          "internalType": "uint256",
          "name": "updatedAt",
          "type": "uint256"
        },
        {
          "internalType": "uint80",
          "name": "answeredInRound",
          "type": "uint80"
        }
      ],
      "stateMutability": "view",
      "type": "function"
    },
    {
      "inputs": [],
      "name": "latestTimestamp",
      "outputs": [
        {
          "internalType": "uint256",
          "name": "",
          "type": "uint256"
        }
      ],
      "stateMutability": "view",
      "type": "function"
    },
    {
      "inputs": [
        {
          "internalType": "int256",
          "name": "_answer",
          "type": "int256"
        }
      ],
      "name": "updateAnswer",
      "outputs": [],
      "stateMutability": "nonpayable",
      "type": "function"
    },
    {
      "inputs": [],
      "name": "version",
      "outputs": [
        {
          "internalType": "uint256",
          "name": "",
          "type": "uint256"
        }
      ],
      "stateMutability": "pure",
      "type": "function"
    }
  ],
  "bytecode": "0x608060405234801561000f575f5ffd5b5060405161070b38038061070b83398101604081905261002e916100c2565b5f805460ff191660ff85161790556007610048838261021a565b506100528161005a565b5050506102f8565b60018190554260025560038054905f610072836102d4565b9091555050600380545f908152600460209081526040808320949094558254825260058152838220429081905592548252600690529190912055565b634e487b7160e01b5f52604160045260245ffd5b5f5f5f606084860312156100d4575f5ffd5b835160ff811681146100e4575f5ffd5b60208501519093506001600160401b038111156100ff575f5ffd5b8401601f8101861361010f575f5ffd5b80516001600160401b03811115610128576101286100ae565b604051601f8201601f19908116603f011681016001600160401b0381118282101715610156576101566100ae565b60405281815282820160200188101561016d575f5ffd5b8160208401602083015e5f91810160200191909152604095909501519396949550929392505050565b600181811c908216806101aa57607f821691505b6020821081036101c857634e487b7160e01b5f52602260045260245ffd5b50919050565b601f82111561021557805f5260205f20601f840160051c810160208510156101f35750805b601f840160051c820191505b81811015610212575f81556001016101ff565b50505b505050565b81516001600160401b03811115610233576102336100ae565b610247816102418454610196565b846101ce565b6020601f821160018114610279575f83156102625750848201515b5f19600385901b1c1916600184901b178455610212565b5f84815260208120601f198516915b828110156102a85787850151825560209485019460019092019101610288565b50848210156102c557868401515f19600387901b60f8161c191681555b50505050600190811b01905550565b5f600182016102f157634e487b7160e01b5f52601160045260245ffd5b5060010190565b610406806103055f395ff3fe608060405234801561000f575f5ffd5b50600436106100b1575f3560e01c80638205bf6a1161006e5780638205bf6a1461011e5780639a6fc8f514610127578063a87a20ce146101a4578063b5ab58dc146101b9578063b633620c146101d8578063feaf968c146101f7575f5ffd5b80632075dc5c146100b5578063313ce567146100d857806350d25bcd146100e257806354fd4d50146100f9578063668a0f02146101005780637284e41614610109575b5f5ffd5b5f546100c19060ff1681565b60405160ff90911681526020015b60405180910390f35b5f5460ff166100c1565b6100eb60015481565b6040519081526020016100cf565b60046100eb565b6100eb60035481565b610111610214565b6040516100cf91906102f8565b6100eb60025481565b61016d61013536600461032d565b69ffffffffffffffffffff81165f90815260046020908152604080832054600683528184205460059093529220549293919290918490565b6040805169ffffffffffffffffffff968716815260208101959095528401929092526060830152909116608082015260a0016100cf565b6101b76101b236600461035d565b6102a4565b005b6100eb6101c736600461035d565b60046020525f908152604090205481565b6100eb6101e636600461035d565b60056020525f908152604090205481565b6003546001545f828152600660205260409020546002548361016d565b60606007805461022390610374565b80601f016020809104026020016040519081016040528092919081815260200182805461024f90610374565b801561029a5780601f106102715761010080835404028352916020019161029a565b820191905f5260205f20905b81548152906001019060200180831161027d57829003601f168201915b5050505050905090565b60018190554260025560038054905f6102bc836103ac565b9091555050600380545f908152600460209081526040808320949094558254825260058152838220429081905592548252600690529190912055565b602081525f82518060208401528060208501604085015e5f604082850101526040601f19601f83011684010191505092915050565b5f6020828403121561033d575f5ffd5b813569ffffffffffffffffffff81168114610356575f5ffd5b9392505050565b5f6020828403121561036d575f5ffd5b5035919050565b600181811c9082168061038857607f821691505b6020821081036103a657634e487b7160e01b5f52602260045260245ffd5b50919050565b5f600182016103c957634e487b7160e01b5f52601160045260245ffd5b506001019056fea2646970667358221220d51d0aad11bf15ffa58f8094e52291578d92b261d83be1a1847e01713e65043864736f6c634300081c0033",
  "linkReferences": {},
  "deployedLinkReferences": {},
  "immutableReferences": {},
  "inputSourceName": "project/contracts/pricefeed/MockCookTokenV3Aggregator.sol",
  "buildInfoId": "solc-0_8_28-2f97367d9b62d6f3020f63cc2c1924048b42fc0a"
}