{
  "_format": "hh3-artifact-1",
  "contractName": "CookNFTMarketplace",
  "sourceName": "contracts/CookNFTMarketplace.sol",
  "abi": [
    {
      "inputs": [
        {
          "internalType": "address",
          "name": "_feeRecipient",
          "type": "address"
        },
        {
          "internalType": "address",
          "name": "_priceConsumer",
          "type": "address"
        }
      ],
      "stateMutability": "nonpayable",
      "type": "constructor"
    },
    {
      "inputs": [],
      "name": "ReentrancyGuardReentrantCall",
      "type": "error"
    },
    {
      "anonymous": false,
      "inputs": [
        {
          "indexed": true,
          "internalType": "uint256",
          "name": "auctionId",
          "type": "uint256"
        },
        {
          "indexed": true,
          "internalType": "address",
          "name": "seller",
          "type": "address"
        },
        {
          "indexed": true,
          "internalType": "address",
          "name": "nftContract",
          "type": "address"
        },
        {
          "indexed": false,
          "internalType": "uint256",
          "name": "tokenId",
          "type": "uint256"
        },
        {
          "indexed": false,
          "internalType": "uint256",
          "name": "startPrice",
          "type": "uint256"
        },
        {
          "indexed": false,
          "internalType": "uint256",
          "name": "endTime",
          "type": "uint256"
        }
      ],
      "name": "AuctionCreated",
      "type": "event"
    },
    {
      "anonymous": false,
      "inputs": [
        {
          "indexed": true,
          "internalType": "uint256",
          "name": "auctionId",
          "type": "uint256"
        },
        {
          "indexed": true,
          "internalType": "address",
          "name": "winner",
          "type": "address"
        },
        {
          "indexed": false,
          "internalType": "address",
          "name": "erc20Token",
          "type": "address"
        },
        {
          "indexed": false,
          "internalType": "uint256",
          "name": "finalPrice",
          "type": "uint256"
        }
      ],
      "name": "AuctionEnded",
      "type": "event"
    },
    {
      "anonymous": false,
      "inputs": [
        {
          "indexed": true,
          "internalType": "uint256",
          "name": "auctionId",
          "type": "uint256"
        },
        {
          "indexed": true,
          "internalType": "address",
          "name": "bidder",
          "type": "address"
        },
        {
          "indexed": false,
          "internalType": "address",
          "name": "erc20Token",
          "type": "address"
        },
        {
          "indexed": false,
          "internalType": "uint256",
          "name": "amount",
          "type": "uint256"
        }
      ],
      "name": "BidPlaced",
      "type": "event"
    },
    {
      "anonymous": false,
      "inputs": [
        {
          "indexed": true,
          "internalType": "uint256",
          "name": "listingId",
          "type": "uint256"
        }
      ],
      "name": "NFTDelisted",
      "type": "event"
    },
    {
      "anonymous": false,
      "inputs": [
        {
          "indexed": true,
          "internalType": "uint256",
          "name": "listingId",
          "type": "uint256"
        },
        {
          "indexed": true,
          "internalType": "address",
          "name": "seller",
          "type": "address"
        },
        {
          "indexed": true,
          "internalType": "address",
          "name": "nftContract",
          "type": "address"
        },
        {
          "indexed": false,
          "internalType": "uint256",
          "name": "tokenId",
          "type": "uint256"
        },
        {
          "indexed": false,
          "internalType": "uint256",
          "name": "price",
          "type": "uint256"
        }
      ],
      "name": "NFTListed",
      "type": "event"
    },
    {
      "anonymous": false,
      "inputs": [
        {
          "indexed": true,
          "internalType": "uint256",
          "name": "listingId",
          "type": "uint256"
        },
        {
          "indexed": true,
          "internalType": "address",
          "name": "buyer",
          "type": "address"
        },
        {
          "indexed": true,
          "internalType": "address",
          "name": "seller",
          "type": "address"
        },
        {
          "indexed": false,
          "internalType": "address",
          "name": "erc20Token",
          "type": "address"
        },
        {
          "indexed": false,
          "internalType": "uint256",
          "name": "price",
          "type": "uint256"
        }
      ],
      "name": "NFTSold",
      "type": "event"
    },
    {
      "anonymous": false,
      "inputs": [
        {
          "indexed": true,
          "internalType": "uint256",
          "name": "listingId",
          "type": "uint256"
        },
        {
          "indexed": false,
          "internalType": "uint256",
          "name": "newPrice",
          "type": "uint256"
        }
      ],
      "name": "PriceUpdated",
      "type": "event"
    },
    {
      "inputs": [],
      "name": "auctionCounter",
      "outputs": [
        {
          "internalType": "uint256",
          "name": "",
          "type": "uint256"
        }
      ],
      "stateMutability": "view",
      "type": "function"
    },
    {
      "inputs": [
        {
          "internalType": "uint256",
          "name": "",
          "type": "uint256"
        }
      ],
      "name": "auctions",
      "outputs": [
        {
          "internalType": "address",
          "name": "seller",
          "type": "address"
        },
        {
          "internalType": "address",
          "name": "nftContract",
          "type": "address"
        },
        {
          "internalType": "uint256",
          "name": "tokenId",
          "type": "uint256"
        },
        {
          "internalType": "uint256",
          "name": "startPrice",
          "type": "uint256"
        },
        {
          "internalType": "uint256",
          "name": "highestBid",
          "type": "uint256"
        },
        {
          "internalType": "address",
          "name": "highestBidder",
          "type": "address"
        },
        {
          "internalType": "address",
          "name": "token",
          "type": "address"
        },
        {
          "internalType": "uint256",
          "name": "tokenAmount",
          "type": "uint256"
        },
        {
          "internalType": "uint256",
          "name": "endTime",
          "type": "uint256"
        },
        {
          "internalType": "bool",
          "name": "active",
          "type": "bool"
        }
      ],
      "stateMutability": "view",
      "type": "function"
    },
    {
      "inputs": [
        {
          "internalType": "uint256",
          "name": "listingId",
          "type": "uint256"
        },
        {
          "internalType": "address",
          "name": "erc20Token",
          "type": "address"
        },
        {
          "internalType": "uint256",
          "name": "amount",
          "type": "uint256"
        }
      ],
      "name": "buyNFT",
      "outputs": [
        {
          "internalType": "bool",
          "name": "",
          "type": "bool"
        }
      ],
      "stateMutability": "payable",
      "type": "function"
    },
    {
      "inputs": [
        {
          "internalType": "address",
          "name": "nftContract",
          "type": "address"
        },
        {
          "internalType": "uint256",
          "name": "tokenId",
          "type": "uint256"
        },
        {
          "internalType": "uint256",
          "name": "startPrice",
          "type": "uint256"
        },
        {
          "internalType": "uint256",
          "name": "durationHours",
          "type": "uint256"
        }
      ],
      "name": "createAuction",
      "outputs": [
        {
          "internalType": "uint256",
          "name": "",
          "type": "uint256"
        }
      ],
      "stateMutability": "nonpayable",
      "type": "function"
    },
    {
      "inputs": [
        {
          "internalType": "uint256",
          "name": "listingId",
          "type": "uint256"
        }
      ],
      "name": "delistNFT",
      "outputs": [],
      "stateMutability": "nonpayable",
      "type": "function"
    },
    {
      "inputs": [
        {
          "internalType": "uint256",
          "name": "auctionId",
          "type": "uint256"
        }
      ],
      "name": "endAuction",
      "outputs": [],
      "stateMutability": "nonpayable",
      "type": "function"
    },
    {
      "inputs": [],
      "name": "feeRecipient",
      "outputs": [
        {
          "internalType": "address",
          "name": "",
          "type": "address"
        }
      ],
      "stateMutability": "view",
      "type": "function"
    },
    {
      "inputs": [
        {
          "internalType": "uint256",
          "name": "auctionId",
          "type": "uint256"
        }
      ],
      "name": "getAuction",
      "outputs": [
        {
          "internalType": "address",
          "name": "seller",
          "type": "address"
        },
        {
          "internalType": "address",
          "name": "nftContract",
          "type": "address"
        },
        {
          "internalType": "uint256",
          "name": "tokenId",
          "type": "uint256"
        },
        {
          "internalType": "uint256",
          "name": "startPrice",
          "type": "uint256"
        },
        {
          "internalType": "uint256",
          "name": "highestBid",
          "type": "uint256"
        },
        {
          "internalType": "address",
          "name": "highestBidder",
          "type": "address"
        },
        {
          "internalType": "uint256",
          "name": "endTime",
          "type": "uint256"
        },
        {
          "internalType": "bool",
          "name": "active",
          "type": "bool"
        }
      ],
      "stateMutability": "view",
      "type": "function"
    },
    {
      "inputs": [
        {
          "internalType": "uint256",
          "name": "listingId",
          "type": "uint256"
        }
      ],
      "name": "getListing",
      "outputs": [
        {
          "internalType": "address",
          "name": "seller",
          "type": "address"
        },
        {
          "internalType": "address",
          "name": "nftContract",
          "type": "address"
        },
        {
          "internalType": "uint256",
          "name": "tokenId",
          "type": "uint256"
        },
        {
          "internalType": "uint256",
          "name": "price",
          "type": "uint256"
        },
        {
          "internalType": "bool",
          "name": "active",
          "type": "bool"
        }
      ],
      "stateMutability": "view",
      "type": "function"
    },
    {
      "inputs": [
        {
          "internalType": "address",
          "name": "nftContract",
          "type": "address"
        },
        {
          "internalType": "uint256",
          "name": "tokenId",
          "type": "uint256"
        },
        {
          "internalType": "uint256",
          "name": "price",
          "type": "uint256"
        }
      ],
      "name": "listNFT",
      "outputs": [
        {
          "internalType": "uint256",
          "name": "",
          "type": "uint256"
        }
      ],
      "stateMutability": "nonpayable",
      "type": "function"
    },
    {
      "inputs": [],
      "name": "listingCounter",
      "outputs": [
        {
          "internalType": "uint256",
          "name": "",
          "type": "uint256"
        }
      ],
      "stateMutability": "view",
      "type": "function"
    },
    {
      "inputs": [
        {
          "internalType": "uint256",
          "name": "",
          "type": "uint256"
        }
      ],
      "name": "listings",
      "outputs": [
        {
          "internalType": "address",
          "name": "seller",
          "type": "address"
        },
        {
          "internalType": "address",
          "name": "nftContract",
          "type": "address"
        },
        {
          "internalType": "uint256",
          "name": "tokenId",
          "type": "uint256"
        },
        {
          "internalType": "uint256",
          "name": "price",
          "type": "uint256"
        },
        {
          "internalType": "bool",
          "name": "active",
          "type": "bool"
        }
      ],
      "stateMutability": "view",
      "type": "function"
    },
    {
      "inputs": [
        {
          "internalType": "uint256",
          "name": "",
          "type": "uint256"
        },
        {
          "internalType": "address",
          "name": "",
          "type": "address"
        }
      ],
      "name": "pendingReturns",
      "outputs": [
        {
          "internalType": "uint256",
          "name": "",
          "type": "uint256"
        }
      ],
      "stateMutability": "view",
      "type": "function"
    },
    {
      "inputs": [
        {
          "internalType": "uint256",
          "name": "",
          "type": "uint256"
        },
        {
          "internalType": "address",
          "name": "",
          "type": "address"
        },
        {
          "internalType": "address",
          "name": "",
          "type": "address"
        }
      ],
      "name": "pendingTokenReturns",
      "outputs": [
        {
          "internalType": "uint256",
          "name": "",
          "type": "uint256"
        }
      ],
      "stateMutability": "view",
      "type": "function"
    },
    {
      "inputs": [
        {
          "internalType": "uint256",
          "name": "auctionId",
          "type": "uint256"
        },
        {
          "internalType": "address",
          "name": "erc20Token",
          "type": "address"
        },
        {
          "internalType": "uint256",
          "name": "amount",
          "type": "uint256"
        }
      ],
      "name": "placeBid",
      "outputs": [],
      "stateMutability": "payable",
      "type": "function"
    },
    {
      "inputs": [],
      "name": "platformFee",
      "outputs": [
        {
          "internalType": "uint256",
          "name": "",
          "type": "uint256"
        }
      ],
      "stateMutability": "view",
      "type": "function"
    },
    {
      "inputs": [],
      "name": "priceConsumer",
      "outputs": [
        {
          "internalType": "contract PriceConsumerV3",
          "name": "",
          "type": "address"
        }
      ],
      "stateMutability": "view",
      "type": "function"
    },
    {
      "inputs": [
        {
          "internalType": "uint256",
          "name": "newFee",
          "type": "uint256"
        }
      ],
      "name": "setPlatformFee",
      "outputs": [],
      "stateMutability": "nonpayable",
      "type": "function"
    },
    {
      "inputs": [
        {
          "internalType": "address",
          "name": "newRecipient",
          "type": "address"
        }
      ],
      "name": "updateFeeRecipient",
      "outputs": [],
      "stateMutability": "nonpayable",
      "type": "function"
    },
    {
      "inputs": [
        {
          "internalType": "uint256",
          "name": "listingId",
          "type": "uint256"
        },
        {
          "internalType": "uint256",
          "name": "newPrice",
          "type": "uint256"
        }
      ],
      "name": "updatePrice",
      "outputs": [],
      "stateMutability": "nonpayable",
      "type": "function"
    },
    {
      "inputs": [
        {
          "internalType": "address",
          "name": "_priceConsumer",
          "type": "address"
        }
      ],
      "name": "updatePriceConsumer",
      "outputs": [],
      "stateMutability": "nonpayable",
      "type": "function"
    },
    {
      "inputs": [
        {
          "internalType": "uint256",
          "name": "auctionId",
          "type": "uint256"
        },
        {
          "internalType": "address",
          "name": "erc20Token",
          "type": "address"
        }
      ],
      "name": "withdrawBid",
      "outputs": [],
      "stateMutability": "nonpayable",
      "type": "function"
    }
  ],
  "bytecode": "0x608060405260fa600855348015610014575f5ffd5b5060405161300238038061300283398101604081905261003391610134565b60015f556001600160a01b0382166100925760405162461bcd60e51b815260206004820152601560248201527f496e76616c69642066656520726563697069656e74000000000000000000000060448201526064015b60405180910390fd5b6001600160a01b0381166100e85760405162461bcd60e51b815260206004820152601560248201527f496e76616c6964207072696365436f6e73756d657200000000000000000000006044820152606401610089565b600980546001600160a01b039384166001600160a01b03199182161790915560018054929093169116179055610165565b80516001600160a01b038116811461012f575f5ffd5b919050565b5f5f60408385031215610145575f5ffd5b61014e83610119565b915061015c60208401610119565b90509250929050565b612e90806101725f395ff3fe608060405260043610610131575f3560e01c8063801f597f116100a8578063b9a2de3a1161006d578063b9a2de3a1461059f578063cb917b9c146105be578063d475856e146105dd578063de74e57b14610619578063f160d36914610671578063f1e2f34814610690575f5ffd5b8063801f597f146104f757806382367b2d146105165780638ddac1ef14610535578063a7e766441461056b578063ad05f1b414610580575f5ffd5b806346904840116100f95780634690484014610290578063571a26a0146102af57806361beb1d71461038e5780636c2c9c7d146103ad5780636d5d12c5146103c257806378bd7935146103e1575f5ffd5b8063107a274a1461013557806312e8e2c3146101f2578063185385431461021357806326232a2e14610236578063461a758c14610259575b5f5ffd5b348015610140575f5ffd5b506101b861014f366004612b25565b5f90815260026020818152604092839020835160a08101855281546001600160a01b0390811680835260018401549091169382018490529382015494810185905260038201546060820181905260049092015460ff161515608090910181905292949193929091565b604080516001600160a01b0396871681529590941660208601529284019190915260608301521515608082015260a0015b60405180910390f35b3480156101fd575f5ffd5b5061021161020c366004612b25565b6106a3565b005b610226610221366004612b50565b61071c565b60405190151581526020016101e9565b348015610241575f5ffd5b5061024b60085481565b6040519081526020016101e9565b348015610264575f5ffd5b50600154610278906001600160a01b031681565b6040516001600160a01b0390911681526020016101e9565b34801561029b575f5ffd5b50600954610278906001600160a01b031681565b3480156102ba575f5ffd5b5061032c6102c9366004612b25565b600460208190525f918252604090912080546001820154600283015460038401549484015460058501546006860154600787015460088801546009909801546001600160a01b039788169996881698959794959385169490921692909160ff168a565b604080516001600160a01b039b8c168152998b1660208b01528901979097526060880195909552608087019390935290861660a086015290941660c084015260e0830193909352610100820192909252901515610120820152610140016101e9565b348015610399575f5ffd5b5061024b6103a8366004612b85565b610f78565b3480156103b8575f5ffd5b5061024b60035481565b3480156103cd575f5ffd5b506102116103dc366004612bbd565b6113ee565b3480156103ec575f5ffd5b506104a76103fb366004612b25565b5f9081526004602081815260409283902083516101408101855281546001600160a01b0390811680835260018401548216948301859052600284015496830187905260038401546060840181905295840154608084018190526005850154831660a08501819052600686015490931660c0850152600785015460e08501526008850154610100850181905260099095015460ff1615156101209094018490529097949695949093919290565b604080516001600160a01b03998a16815297891660208901528701959095526060860193909352608085019190915290931660a083015260c082019290925290151560e0820152610100016101e9565b348015610502575f5ffd5b50610211610511366004612bd8565b611482565b348015610521575f5ffd5b50610211610530366004612c06565b6116d7565b348015610540575f5ffd5b5061024b61054f366004612bd8565b600660209081525f928352604080842090915290825290205481565b348015610576575f5ffd5b5061024b60055481565b34801561058b575f5ffd5b5061024b61059a366004612c26565b6117e2565b3480156105aa575f5ffd5b506102116105b9366004612b25565b611b55565b3480156105c9575f5ffd5b506102116105d8366004612b25565b6122f8565b3480156105e8575f5ffd5b5061024b6105f7366004612c58565b600760209081525f938452604080852082529284528284209052825290205481565b348015610624575f5ffd5b506101b8610633366004612b25565b600260208190525f9182526040909120805460018201549282015460038301546004909301546001600160a01b039283169490921692909160ff1685565b34801561067c575f5ffd5b5061021161068b366004612bbd565b6123ad565b61021161069e366004612b50565b612441565b6009546001600160a01b031633146106d65760405162461bcd60e51b81526004016106cd90612c97565b60405180910390fd5b6103e88111156107175760405162461bcd60e51b815260206004820152600c60248201526b08ccaca40e8dede40d0d2ced60a31b60448201526064016106cd565b600855565b5f610725612875565b5f848152600260205260409020600481015460ff166107565760405162461bcd60e51b81526004016106cd90612cc2565b80546001600160a01b031633036107af5760405162461bcd60e51b815260206004820152601760248201527f43616e6e6f742062757920796f7572206f776e204e465400000000000000000060448201526064016106cd565b6001600160a01b038416158015906107c657505f83115b15610ab657835f6107d7828661289d565b90505f6107f18285600301546129e690919063ffffffff16565b90508086101561083a5760405162461bcd60e51b8152602060048201526014602482015273125b9cdd59999a58da595b9d081c185e5b595b9d60621b60448201526064016106cd565b60048401805460ff1916905560085460038501545f91610874918591612710916108649190612d02565b61086e9190612d2d565b906129e6565b90505f5f6108a1876001015f9054906101000a90046001600160a01b031688600201548960030154612a19565b90925090506108b081866129e6565b90505f816108be8587612d4c565b6108c89190612d4c565b6001890154895460028b0154604051632142170760e11b81529394506001600160a01b03928316936342842e0e936109069316913391600401612d5f565b5f604051808303815f87803b15801561091d575f5ffd5b505af115801561092f573d5f5f3e3d5ffd5b505050505f8211801561094a57506001600160a01b03831615155b156109c1576040516323b872dd60e01b81526001600160a01b038816906323b872dd9061097f90339087908790600401612d5f565b6020604051808303815f875af115801561099b573d5f5f3e3d5ffd5b505050506040513d601f19601f820116820180604052508101906109bf9190612d83565b505b87546040516323b872dd60e01b81526001600160a01b03808a16926323b872dd926109f492339216908690600401612d5f565b6020604051808303815f875af1158015610a10573d5f5f3e3d5ffd5b505050506040513d601f19601f82011682018060405250810190610a349190612d83565b506009546040516323b872dd60e01b81526001600160a01b03808a16926323b872dd92610a6992339216908990600401612d5f565b6020604051808303815f875af1158015610a85573d5f5f3e3d5ffd5b505050506040513d601f19601f82011682018060405250810190610aa99190612d83565b5050505050505050610f0f565b6001546040516302c68be360e31b81525f60048201819052916001600160a01b0316906316345f1890602401602060405180830381865afa158015610afd573d5f5f3e3d5ffd5b505050506040513d601f19601f82011682018060405250810190610b219190612da2565b90505f8111610b425760405162461bcd60e51b81526004016106cd90612db9565b60038201545f90610b5390836129e6565b905080341015610b9c5760405162461bcd60e51b8152602060048201526014602482015273125b9cdd59999a58da595b9d081c185e5b595b9d60621b60448201526064016106cd565b60048301805460ff1916905560085460038401545f91610bc6918591612710916108649190612d02565b90505f5f610bf3866001015f9054906101000a90046001600160a01b031687600201548860030154612a19565b9092509050610c0281866129e6565b90505f81610c108587612d4c565b610c1a9190612d4c565b6001880154885460028a0154604051632142170760e11b81529394506001600160a01b03928316936342842e0e93610c589316913391600401612d5f565b5f604051808303815f87803b158015610c6f575f5ffd5b505af1158015610c81573d5f5f3e3d5ffd5b505050505f82118015610c9c57506001600160a01b03831615155b15610d3c575f836001600160a01b0316836040515f6040518083038185875af1925050503d805f8114610cea576040519150601f19603f3d011682016040523d82523d5f602084013e610cef565b606091505b5050905080610d3a5760405162461bcd60e51b8152602060048201526017602482015276149bde585b1d1e481d1c985b9cd9995c8819985a5b1959604a1b60448201526064016106cd565b505b86546040515f916001600160a01b03169083908381818185875af1925050503d805f8114610d85576040519150601f19603f3d011682016040523d82523d5f602084013e610d8a565b606091505b5050905080610dd75760405162461bcd60e51b8152602060048201526019602482015278151c985b9cd9995c881d1bc81cd95b1b195c8819985a5b1959603a1b60448201526064016106cd565b6009546040515f916001600160a01b03169087908381818185875af1925050503d805f8114610e21576040519150601f19603f3d011682016040523d82523d5f602084013e610e26565b606091505b5050905080610e6d5760405162461bcd60e51b8152602060048201526013602482015272151c985b9cd9995c881999594819985a5b1959606a1b60448201526064016106cd565b8860030154341115610f06575f33610e858934612d4c565b6040515f81818185875af1925050503d805f8114610ebe576040519150601f19603f3d011682016040523d82523d5f602084013e610ec3565b606091505b5050905080610f045760405162461bcd60e51b815260206004820152600d60248201526c1499599d5b990819985a5b1959609a1b60448201526064016106cd565b505b50505050505050505b80546003820154604080516001600160a01b03888116825260208201939093529190921691339188917f72dd70dae79b3f973331fcd42a8ecdd1fac147b116c3bf35b7c22dab1ba9a210910160405180910390a46001915050610f7160015f55565b9392505050565b5f5f8311610fd35760405162461bcd60e51b815260206004820152602260248201527f5374617274207072696365206d7573742062652067726561746572207468616e604482015261020360f41b60648201526084016106cd565b60018210156110245760405162461bcd60e51b815260206004820181905260248201527f4475726174696f6e206d757374206265206174206c65617374203120686f757260448201526064016106cd565b6001600160a01b0385166110715760405162461bcd60e51b8152602060048201526014602482015273125b9d985b1a59081391950818dbdb9d1c9858dd60621b60448201526064016106cd565b6040516331a9108f60e11b815260048101859052859033906001600160a01b03831690636352211e90602401602060405180830381865afa1580156110b8573d5f5f3e3d5ffd5b505050506040513d601f19601f820116820180604052508101906110dc9190612de8565b6001600160a01b0316146111225760405162461bcd60e51b815260206004820152600d60248201526c2737ba103a34329037bbb732b960991b60448201526064016106cd565b60405163020604bf60e21b81526004810186905230906001600160a01b0383169063081812fc90602401602060405180830381865afa158015611167573d5f5f3e3d5ffd5b505050506040513d601f19601f8201168201806040525081019061118b9190612de8565b6001600160a01b03161480611207575060405163e985e9c560e01b81523360048201523060248201526001600160a01b0382169063e985e9c590604401602060405180830381865afa1580156111e3573d5f5f3e3d5ffd5b505050506040513d601f19601f820116820180604052508101906112079190612d83565b61124e5760405162461bcd60e51b815260206004820152601860248201527713585c9ad95d1c1b1858d9481b9bdd08185c1c1c9bdd995960421b60448201526064016106cd565b60058054905f61125d83612e03565b909155505060408051610140810182523381526001600160a01b0388166020820152908101869052606081018590525f6080820181905260a0820181905260c0820181905260e082015261010081016112b885610e10612d02565b6112c29042612e1b565b815260016020918201819052600580545f90815260048085526040808320875181546001600160a01b03199081166001600160a01b039283161783558989015197830180548216988316989098179097558883015160028301556060808a0151600384015560808a01519483019490945560a08901518287018054891691831691909117905560c08901516006830180549098169082161790965560e08801516007820155610100880151600880830191909155610120909801516009909101805460ff19169115159190911790559254808352918390209095015482518b81529485018a9052918401919091529089169233927f06b9e486c68303eb64052e0493f906f3d93a1b7149b6b8dcff221aebd16c3513910160405180910390a45050600554949350505050565b6009546001600160a01b031633146114185760405162461bcd60e51b81526004016106cd90612c97565b6001600160a01b0381166114605760405162461bcd60e51b815260206004820152600f60248201526e496e76616c6964206164647265737360881b60448201526064016106cd565b600180546001600160a01b0319166001600160a01b0392909216919091179055565b6001600160a01b03811661158d575f828152600660209081526040808320338452909152902054806114ea5760405162461bcd60e51b81526020600482015260116024820152702737903832b73234b733903932ba3ab93760791b60448201526064016106cd565b5f8381526006602090815260408083203380855292528083208390555183908381818185875af1925050503d805f811461153f576040519150601f19603f3d011682016040523d82523d5f602084013e611544565b606091505b50509050806115875760405162461bcd60e51b815260206004820152600f60248201526e151c985b9cd9995c8819985a5b1959608a1b60448201526064016106cd565b50505050565b5f82815260076020908152604080832033845282528083206001600160a01b0385168452909152902054806115f85760405162461bcd60e51b81526020600482015260116024820152702737903832b73234b733903932ba3ab93760791b60448201526064016106cd565b5f838152600760209081526040808320338085529083528184206001600160a01b0387168086529352818420849055905163a9059cbb60e01b81526004810191909152602481018490528492919063a9059cbb906044016020604051808303815f875af115801561166b573d5f5f3e3d5ffd5b505050506040513d601f19601f8201168201806040525081019061168f9190612d83565b9050806116d05760405162461bcd60e51b815260206004820152600f60248201526e151c985b9cd9995c8819985a5b1959608a1b60448201526064016106cd565b5050505050565b5f81116117265760405162461bcd60e51b815260206004820152601c60248201527f5072696365206d7573742062652067726561746572207468616e20300000000060448201526064016106cd565b5f828152600260205260409020600481015460ff166117575760405162461bcd60e51b81526004016106cd90612cc2565b80546001600160a01b031633146117a15760405162461bcd60e51b815260206004820152600e60248201526d2737ba103a34329039b2b63632b960911b60448201526064016106cd565b6003810182905560405182815283907f945c1c4e99aa89f648fbfe3df471b916f719e16d960fcec0737d4d56bd6968389060200160405180910390a2505050565b5f5f82116118325760405162461bcd60e51b815260206004820152601c60248201527f5072696365206d7573742062652067726561746572207468616e20300000000060448201526064016106cd565b6001600160a01b03841661187f5760405162461bcd60e51b8152602060048201526014602482015273125b9d985b1a59081391950818dbdb9d1c9858dd60621b60448201526064016106cd565b6040516331a9108f60e11b815260048101849052849033906001600160a01b03831690636352211e90602401602060405180830381865afa1580156118c6573d5f5f3e3d5ffd5b505050506040513d601f19601f820116820180604052508101906118ea9190612de8565b6001600160a01b0316146119305760405162461bcd60e51b815260206004820152600d60248201526c2737ba103a34329037bbb732b960991b60448201526064016106cd565b60405163020604bf60e21b81526004810185905230906001600160a01b0383169063081812fc90602401602060405180830381865afa158015611975573d5f5f3e3d5ffd5b505050506040513d601f19601f820116820180604052508101906119999190612de8565b6001600160a01b03161480611a15575060405163e985e9c560e01b81523360048201523060248201526001600160a01b0382169063e985e9c590604401602060405180830381865afa1580156119f1573d5f5f3e3d5ffd5b505050506040513d601f19601f82011682018060405250810190611a159190612d83565b611a5c5760405162461bcd60e51b815260206004820152601860248201527713585c9ad95d1c1b1858d9481b9bdd08185c1c1c9bdd995960421b60448201526064016106cd565b60038054905f611a6b83612e03565b90915550506040805160a081018252338082526001600160a01b0388811660208085018281528587018b8152606087018b8152600160808901818152600380545f9081526002808952908d90209b518c546001600160a01b0319908116918c16919091178d559651938c0180549097169390991692909217909455915195880195909555935186850155516004909501805460ff191695151595909517909455905484518981529384018890529093919290917fb0fe4922ac99799c17a4130d5c045ba2ecdf6e15b75b9ea84aaf0dc28724a42b910160405180910390a450506003549392505050565b611b5d612875565b5f818152600460205260409020600981015460ff16611bb35760405162461bcd60e51b815260206004820152601260248201527141756374696f6e206e6f742061637469766560701b60448201526064016106cd565b8060080154421015611bfb5760405162461bcd60e51b8152602060048201526011602482015270105d58dd1a5bdb881b9bdd08195b991959607a1b60448201526064016106cd565b60098101805460ff1916905560058101546001600160a01b0316156122ad5760068101546001600160a01b031615611f0b5760068101546001546040516302c68be360e31b81526001600160a01b0392831660048201819052925f9216906316345f1890602401602060405180830381865afa158015611c7d573d5f5f3e3d5ffd5b505050506040513d601f19601f82011682018060405250810190611ca19190612da2565b90505f611cbd8261271060085487600401546108649190612d02565b90505f5f611cea866001015f9054906101000a90046001600160a01b031687600201548860040154612a19565b9092509050611cf981856129e6565b90505f81848860070154611d0d9190612d4c565b611d179190612d4c565b6001880154885460058a015460028b0154604051632142170760e11b81529495506001600160a01b03938416946342842e0e94611d5c94811693169190600401612d5f565b5f604051808303815f87803b158015611d73575f5ffd5b505af1158015611d85573d5f5f3e3d5ffd5b505050505f82118015611da057506001600160a01b03831615155b15611e175760405163a9059cbb60e01b81526001600160a01b0384811660048301526024820184905287169063a9059cbb906044016020604051808303815f875af1158015611df1573d5f5f3e3d5ffd5b505050506040513d601f19601f82011682018060405250810190611e159190612d83565b505b865460405163a9059cbb60e01b81526001600160a01b039182166004820152602481018390529087169063a9059cbb906044016020604051808303815f875af1158015611e66573d5f5f3e3d5ffd5b505050506040513d601f19601f82011682018060405250810190611e8a9190612d83565b5060095460405163a9059cbb60e01b81526001600160a01b039182166004820152602481018690529087169063a9059cbb906044016020604051808303815f875af1158015611edb573d5f5f3e3d5ffd5b505050506040513d601f19601f82011682018060405250810190611eff9190612d83565b5050505050505061224e565b6001546040516302c68be360e31b81525f60048201819052916001600160a01b0316906316345f1890602401602060405180830381865afa158015611f52573d5f5f3e3d5ffd5b505050506040513d601f19601f82011682018060405250810190611f769190612da2565b90505f611f928261271060085486600401546108649190612d02565b90505f5f611fbf856001015f9054906101000a90046001600160a01b031686600201548760040154612a19565b9092509050611fce81856129e6565b90505f81848760070154611fe29190612d4c565b611fec9190612d4c565b60018701548754600589015460028a0154604051632142170760e11b81529495506001600160a01b03938416946342842e0e9461203194811693169190600401612d5f565b5f604051808303815f87803b158015612048575f5ffd5b505af115801561205a573d5f5f3e3d5ffd5b505050505f8211801561207557506001600160a01b03831615155b15612115575f836001600160a01b0316836040515f6040518083038185875af1925050503d805f81146120c3576040519150601f19603f3d011682016040523d82523d5f602084013e6120c8565b606091505b50509050806121135760405162461bcd60e51b8152602060048201526017602482015276149bde585b1d1e481d1c985b9cd9995c8819985a5b1959604a1b60448201526064016106cd565b505b85546040515f916001600160a01b03169083908381818185875af1925050503d805f811461215e576040519150601f19603f3d011682016040523d82523d5f602084013e612163565b606091505b50509050806121b05760405162461bcd60e51b8152602060048201526019602482015278151c985b9cd9995c881d1bc81cd95b1b195c8819985a5b1959603a1b60448201526064016106cd565b6009546040515f916001600160a01b03169087908381818185875af1925050503d805f81146121fa576040519150601f19603f3d011682016040523d82523d5f602084013e6121ff565b606091505b50509050806122465760405162461bcd60e51b8152602060048201526013602482015272151c985b9cd9995c881999594819985a5b1959606a1b60448201526064016106cd565b505050505050505b600581015460068201546004830154604080516001600160a01b0393841681526020810192909252919092169184917f1569802994a84674f75331b5081a75eefaac9d79eb336ae1544ed0aae49cb938910160405180910390a36122eb565b604080515f808252602082018190529184917f1569802994a84674f75331b5081a75eefaac9d79eb336ae1544ed0aae49cb938910160405180910390a35b506122f560015f55565b50565b5f818152600260205260409020600481015460ff166123295760405162461bcd60e51b81526004016106cd90612cc2565b80546001600160a01b031633146123735760405162461bcd60e51b815260206004820152600e60248201526d2737ba103a34329039b2b63632b960911b60448201526064016106cd565b60048101805460ff1916905560405182907fc0c55a6edead4433d18cb1e287a0a20a2fa003a6f483bc9823d2e504d70d1c67905f90a25050565b6009546001600160a01b031633146123d75760405162461bcd60e51b81526004016106cd90612c97565b6001600160a01b03811661241f5760405162461bcd60e51b815260206004820152600f60248201526e496e76616c6964206164647265737360881b60448201526064016106cd565b600980546001600160a01b0319166001600160a01b0392909216919091179055565b5f838152600460205260409020600981015460ff166124975760405162461bcd60e51b815260206004820152601260248201527141756374696f6e206e6f742061637469766560701b60448201526064016106cd565b806008015442106124da5760405162461bcd60e51b815260206004820152600d60248201526c105d58dd1a5bdb88195b991959609a1b60448201526064016106cd565b80546001600160a01b031633036125275760405162461bcd60e51b815260206004820152601160248201527014d95b1b195c8818d85b9b9bdd08189a59607a1b60448201526064016106cd565b5f81600401545f0361253e5750600381015461256d565b6064826004015460056125519190612d02565b61255b9190612d2d565b826004015461256a9190612e1b565b90505b5f6001600160a01b0385161580159061258557505f84115b156125ab57845f612596828761289d565b90506125a28682612d02565b92505050612645565b6001546040516302c68be360e31b81525f60048201819052916001600160a01b0316906316345f1890602401602060405180830381865afa1580156125f2573d5f5f3e3d5ffd5b505050506040513d601f19601f820116820180604052508101906126169190612da2565b90505f81116126375760405162461bcd60e51b81526004016106cd90612db9565b6126413482612d02565b9150505b818110156126835760405162461bcd60e51b815260206004820152600b60248201526a42696420746f6f206c6f7760a81b60448201526064016106cd565b60058301546001600160a01b0316156127415760068301546001600160a01b031615612701576007808401545f8881526020928352604080822060058801546001600160a01b039081168452908552818320600689015490911683529093529182208054919290916126f6908490612e1b565b909155506127419050565b60078301545f87815260066020908152604080832060058801546001600160a01b031684529091528120805490919061273b908490612e1b565b90915550505b600483018190556005830180546001600160a01b031916331790556001600160a01b0385161580159061277357505f84115b1561280e576006830180546001600160a01b0319166001600160a01b038716908117909155600784018590556040516323b872dd60e01b81528691906323b872dd906127c790339030908a90600401612d5f565b6020604051808303815f875af11580156127e3573d5f5f3e3d5ffd5b505050506040513d601f19601f820116820180604052508101906128079190612d83565b5050612827565b6006830180546001600160a01b03191690553460078401555b604080516001600160a01b038716815260208101839052339188917f3d87e1d02e187b9fe1095bc12567b7485b6cf54c47eea3dc9b5fd64d03cb6750910160405180910390a3505050505050565b60025f540361289757604051633ee5aeb560e01b815260040160405180910390fd5b60025f55565b604051636eb1769f60e11b81523360048201523060248201525f9082906001600160a01b0385169063dd62ed3e90604401602060405180830381865afa1580156128e9573d5f5f3e3d5ffd5b505050506040513d601f19601f8201168201806040525081019061290d9190612da2565b10156129505760405162461bcd60e51b815260206004820152601260248201527124b739bab33334b1b4b2b73a103a37b5b2b760711b60448201526064016106cd565b6001546040516302c68be360e31b81526001600160a01b0385811660048301525f9216906316345f1890602401602060405180830381865afa158015612998573d5f5f3e3d5ffd5b505050506040513d601f19601f820116820180604052508101906129bc9190612da2565b90505f81116129dd5760405162461bcd60e51b81526004016106cd90612db9565b90505b92915050565b5f815f036129f8576129f86012612b14565b816001840381612a0a57612a0a612d19565b04600101831515029392505050565b6040516301ffc9a760e01b815263152a902d60e11b60048201525f9081906001600160a01b038616906301ffc9a790602401602060405180830381865afa158015612a66573d5f5f3e3d5ffd5b505050506040513d601f19601f82011682018060405250810190612a8a9190612d83565b15612b065760405163152a902d60e11b815260048101859052602481018490526001600160a01b03861690632a55205a906044016040805180830381865afa158015612ad8573d5f5f3e3d5ffd5b505050506040513d601f19601f82011682018060405250810190612afc9190612e2e565b9092509050612b0c565b505f9050805b935093915050565b634e487b715f52806020526024601cfd5b5f60208284031215612b35575f5ffd5b5035919050565b6001600160a01b03811681146122f5575f5ffd5b5f5f5f60608486031215612b62575f5ffd5b833592506020840135612b7481612b3c565b929592945050506040919091013590565b5f5f5f5f60808587031215612b98575f5ffd5b8435612ba381612b3c565b966020860135965060408601359560600135945092505050565b5f60208284031215612bcd575f5ffd5b81356129dd81612b3c565b5f5f60408385031215612be9575f5ffd5b823591506020830135612bfb81612b3c565b809150509250929050565b5f5f60408385031215612c17575f5ffd5b50508035926020909101359150565b5f5f5f60608486031215612c38575f5ffd5b8335612c4381612b3c565b95602085013595506040909401359392505050565b5f5f5f60608486031215612c6a575f5ffd5b833592506020840135612c7c81612b3c565b91506040840135612c8c81612b3c565b809150509250925092565b602080825260119082015270139bdd08199959481c9958da5c1a595b9d607a1b604082015260600190565b6020808252601290820152714c697374696e67206e6f742061637469766560701b604082015260600190565b634e487b7160e01b5f52601160045260245ffd5b80820281158282048414176129e0576129e0612cee565b634e487b7160e01b5f52601260045260245ffd5b5f82612d4757634e487b7160e01b5f52601260045260245ffd5b500490565b818103818111156129e0576129e0612cee565b6001600160a01b039384168152919092166020820152604081019190915260600190565b5f60208284031215612d93575f5ffd5b815180151581146129dd575f5ffd5b5f60208284031215612db2575f5ffd5b5051919050565b6020808252601590820152740436861696e6c696e6b3a207072696365203c3d203605c1b604082015260600190565b5f60208284031215612df8575f5ffd5b81516129dd81612b3c565b5f60018201612e1457612e14612cee565b5060010190565b808201808211156129e0576129e0612cee565b5f5f60408385031215612e3f575f5ffd5b8251612e4a81612b3c565b602093909301519294929350505056fea264697066735822122001e832758b9ab8a676767eea7682ddfc6fe1da7296ef5431356e3b13810a94a064736f6c634300081c0033",
  "linkReferences": {},
  "deployedLinkReferences": {},
  "immutableReferences": {},
  "inputSourceName": "project/contracts/CookNFTMarketplace.sol",
  "buildInfoId": "solc-0_8_28-5f4d6f2ff244e6a861fbf3ba3bea5c7ad55d5946"
}