{
  "_format": "hh3-artifact-1",
  "contractName": "PriceConsumerV3",
  "sourceName": "contracts/pricefeed/PriceConsumerV3.sol",
  "abi": [
    {
      "inputs": [],
      "stateMutability": "nonpayable",
      "type": "constructor"
    },
    {
      "inputs": [
        {
          "internalType": "address",
          "name": "owner",
          "type": "address"
        }
      ],
      "name": "OwnableInvalidOwner",
      "type": "error"
    },
    {
      "inputs": [
        {
          "internalType": "address",
          "name": "account",
          "type": "address"
        }
      ],
      "name": "OwnableUnauthorizedAccount",
      "type": "error"
    },
    {
      "anonymous": false,
      "inputs": [
        {
          "indexed": true,
          "internalType": "address",
          "name": "previousOwner",
          "type": "address"
        },
        {
          "indexed": true,
          "internalType": "address",
          "name": "newOwner",
          "type": "address"
        }
      ],
      "name": "OwnershipTransferred",
      "type": "event"
    },
    {
      "inputs": [
        {
          "internalType": "address",
          "name": "tokenAddress",
          "type": "address"
        }
      ],
      "name": "getLatestPrice",
      "outputs": [
        {
          "internalType": "int256",
          "name": "",
          "type": "int256"
        }
      ],
      "stateMutability": "view",
      "type": "function"
    },
    {
      "inputs": [],
      "name": "owner",
      "outputs": [
        {
          "internalType": "address",
          "name": "",
          "type": "address"
        }
      ],
      "stateMutability": "view",
      "type": "function"
    },
    {
      "inputs": [],
      "name": "renounceOwnership",
      "outputs": [],
      "stateMutability": "nonpayable",
      "type": "function"
    },
    {
      "inputs": [
        {
          "internalType": "address",
          "name": "tokenAddress",
          "type": "address"
        },
        {
          "internalType": "address",
          "name": "priceFeed",
          "type": "address"
        }
      ],
      "name": "setPriceFeed",
      "outputs": [],
      "stateMutability": "nonpayable",
      "type": "function"
    },
    {
      "inputs": [
        {
          "internalType": "address",
          "name": "newOwner",
          "type": "address"
        }
      ],
      "name": "transferOwnership",
      "outputs": [],
      "stateMutability": "nonpayable",
      "type": "function"
    }
  ],
  "bytecode": "0x6080604052348015600e575f5ffd5b503380603357604051631e4fbdf760e01b81525f600482015260240160405180910390fd5b603a81603f565b50608e565b5f80546001600160a01b038381166001600160a01b0319831681178455604051919092169283917f8be0079c531659141344cd1fd0a4f28419497f9722a3daafe3b4186f6b6457e09190a35050565b6105008061009b5f395ff3fe608060405234801561000f575f5ffd5b5060043610610055575f3560e01c806316345f1814610059578063715018a61461007f57806376e11286146100895780638da5cb5b1461009c578063f2fde38b146100b6575b5f5ffd5b61006c610067366004610412565b6100c9565b6040519081526020015b60405180910390f35b6100876101af565b005b610087610097366004610432565b6101c2565b5f546040516001600160a01b039091168152602001610076565b6100876100c4366004610412565b61033f565b6001600160a01b038082165f90815260016020526040812054909116806101415760405162461bcd60e51b815260206004820152602160248201527f43757272656e7420746f6b656e206861736e27742061207072696365466565646044820152601760f91b60648201526084015b60405180910390fd5b5f816001600160a01b031663feaf968c6040518163ffffffff1660e01b815260040160a060405180830381865afa15801561017e573d5f5f3e3d5ffd5b505050506040513d601f19601f820116820180604052508101906101a2919061047c565b5091979650505050505050565b6101b761037c565b6101c05f6103a8565b565b6101ca61037c565b6001600160a01b0381166102205760405162461bcd60e51b815260206004820152601a60248201527f496e76616c69642070726963654665656420616464726573732e0000000000006044820152606401610138565b803b6102605760405162461bcd60e51b815260206004820152600f60248201526e2737ba10309031b7b73a3930b1ba1760891b6044820152606401610138565b5f8190505f816001600160a01b031663feaf968c6040518163ffffffff1660e01b815260040160a060405180830381865afa1580156102a1573d5f5f3e3d5ffd5b505050506040513d601f19601f820116820180604052508101906102c5919061047c565b5050509150505f811361030f5760405162461bcd60e51b815260206004820152601260248201527124b73b30b634b210383934b1b2a332b2b21760711b6044820152606401610138565b506001600160a01b039283165f90815260016020526040902080546001600160a01b031916919093161790915550565b61034761037c565b6001600160a01b03811661037057604051631e4fbdf760e01b81525f6004820152602401610138565b610379816103a8565b50565b5f546001600160a01b031633146101c05760405163118cdaa760e01b8152336004820152602401610138565b5f80546001600160a01b038381166001600160a01b0319831681178455604051919092169283917f8be0079c531659141344cd1fd0a4f28419497f9722a3daafe3b4186f6b6457e09190a35050565b80356001600160a01b038116811461040d575f5ffd5b919050565b5f60208284031215610422575f5ffd5b61042b826103f7565b9392505050565b5f5f60408385031215610443575f5ffd5b61044c836103f7565b915061045a602084016103f7565b90509250929050565b805169ffffffffffffffffffff8116811461040d575f5ffd5b5f5f5f5f5f60a08688031215610490575f5ffd5b61049986610463565b602087015160408801516060890151929750909550935091506104be60808701610463565b9050929550929590935056fea264697066735822122093ab62af4ef10804aed8abc380f375189a0c4a082d6f277f93fb179968882a5964736f6c634300081c0033",
  "linkReferences": {},
  "deployedLinkReferences": {},
  "immutableReferences": {},
  "inputSourceName": "project/contracts/pricefeed/PriceConsumerV3.sol",
  "buildInfoId": "solc-0_8_28-76abaa9ca56beeb8ce48e1ef384937efc0d6f0cc"
}