{
  "_format": "hh3-artifact-1",
  "contractName": "BoxV2",
  "sourceName": "contracts/demo2/BoxV2.sol",
  "abi": [
    {
      "inputs": [],
      "name": "InvalidInitialization",
      "type": "error"
    },
    {
      "inputs": [],
      "name": "NotInitializing",
      "type": "error"
    },
    {
      "inputs": [
        {
          "internalType": "address",
          "name": "owner",
          "type": "address"
        }
      ],
      "name": "OwnableInvalidOwner",
      "type": "error"
    },
    {
      "inputs": [
        {
          "internalType": "address",
          "name": "account",
          "type": "address"
        }
      ],
      "name": "OwnableUnauthorizedAccount",
      "type": "error"
    },
    {
      "anonymous": false,
      "inputs": [
        {
          "indexed": false,
          "internalType": "uint64",
          "name": "version",
          "type": "uint64"
        }
      ],
      "name": "Initialized",
      "type": "event"
    },
    {
      "anonymous": false,
      "inputs": [
        {
          "indexed": true,
          "internalType": "address",
          "name": "previousOwner",
          "type": "address"
        },
        {
          "indexed": true,
          "internalType": "address",
          "name": "newOwner",
          "type": "address"
        }
      ],
      "name": "OwnershipTransferred",
      "type": "event"
    },
    {
      "inputs": [],
      "name": "getValue",
      "outputs": [
        {
          "internalType": "uint256",
          "name": "",
          "type": "uint256"
        }
      ],
      "stateMutability": "view",
      "type": "function"
    },
    {
      "inputs": [],
      "name": "increment",
      "outputs": [],
      "stateMutability": "nonpayable",
      "type": "function"
    },
    {
      "inputs": [
        {
          "internalType": "address",
          "name": "owner_",
          "type": "address"
        }
      ],
      "name": "initialize",
      "outputs": [],
      "stateMutability": "nonpayable",
      "type": "function"
    },
    {
      "inputs": [],
      "name": "owner",
      "outputs": [
        {
          "internalType": "address",
          "name": "",
          "type": "address"
        }
      ],
      "stateMutability": "view",
      "type": "function"
    },
    {
      "inputs": [],
      "name": "renounceOwnership",
      "outputs": [],
      "stateMutability": "nonpayable",
      "type": "function"
    },
    {
      "inputs": [
        {
          "internalType": "uint256",
          "name": "newValue",
          "type": "uint256"
        }
      ],
      "name": "setValue",
      "outputs": [],
      "stateMutability": "nonpayable",
      "type": "function"
    },
    {
      "inputs": [
        {
          "internalType": "address",
          "name": "newOwner",
          "type": "address"
        }
      ],
      "name": "transferOwnership",
      "outputs": [],
      "stateMutability": "nonpayable",
      "type": "function"
    }
  ],
  "bytecode": "0x6080604052348015600e575f5ffd5b5061046f8061001c5f395ff3fe608060405234801561000f575f5ffd5b506004361061007a575f3560e01c80638da5cb5b116100585780638da5cb5b146100b0578063c4d66de8146100ea578063d09de08a146100fd578063f2fde38b14610105575f5ffd5b8063209652551461007e5780635524107714610093578063715018a6146100a8575b5f5ffd5b5f546040519081526020015b60405180910390f35b6100a66100a13660046103d6565b610118565b005b6100a6610124565b7f9016d09d72d40fdae2fd8ceac6b6234c7706214fd39c1cd1e609a0528c199300546040516001600160a01b03909116815260200161008a565b6100a66100f83660046103ed565b610137565b6100a6610230565b6100a66101133660046103ed565b610248565b61012061028a565b5f55565b61012c61028a565b6101355f6102e5565b565b5f610140610355565b805490915060ff600160401b820416159067ffffffffffffffff165f811580156101675750825b90505f8267ffffffffffffffff1660011480156101835750303b155b905081158015610191575080155b156101af5760405163f92ee8a960e01b815260040160405180910390fd5b845467ffffffffffffffff1916600117855583156101d957845460ff60401b1916600160401b1785555b6101e28661037f565b831561022857845460ff60401b19168555604051600181527fc7f505b2f371ae2175ee4913f4499e1f2633a7b5936321eed1cdaeb6115181d29060200160405180910390a15b505050505050565b60015f5f828254610241919061041a565b9091555050565b61025061028a565b6001600160a01b03811661027e57604051631e4fbdf760e01b81525f60048201526024015b60405180910390fd5b610287816102e5565b50565b336102bc7f9016d09d72d40fdae2fd8ceac6b6234c7706214fd39c1cd1e609a0528c199300546001600160a01b031690565b6001600160a01b0316146101355760405163118cdaa760e01b8152336004820152602401610275565b7f9016d09d72d40fdae2fd8ceac6b6234c7706214fd39c1cd1e609a0528c19930080546001600160a01b031981166001600160a01b03848116918217845560405192169182907f8be0079c531659141344cd1fd0a4f28419497f9722a3daafe3b4186f6b6457e0905f90a3505050565b5f807ff0c57e16840df040f15088dc2f81fe391c3923bec73e23a9662efc9c229c6a005b92915050565b610387610390565b610287816103b5565b6103986103bd565b61013557604051631afcd79f60e31b815260040160405180910390fd5b610250610390565b5f6103c6610355565b54600160401b900460ff16919050565b5f602082840312156103e6575f5ffd5b5035919050565b5f602082840312156103fd575f5ffd5b81356001600160a01b0381168114610413575f5ffd5b9392505050565b8082018082111561037957634e487b7160e01b5f52601160045260245ffdfea264697066735822122007db38688daad6db26c2c8ca5a49feff614291de17f5db8aef8ae5cc56b90dd664736f6c634300081c0033",
  "linkReferences": {},
  "deployedLinkReferences": {},
  "immutableReferences": {},
  "inputSourceName": "project/contracts/demo2/BoxV2.sol",
  "buildInfoId": "solc-0_8_28-712a1b90b3e3ae88745b0f1d3f7baffc1c5e7d89"
}